{
  "contractName": "Dex",
  "abi": [
    {
      "anonymous": false,
      "inputs": [
        {
          "indexed": true,
          "internalType": "address",
          "name": "previousOwner",
          "type": "address"
        },
        {
          "indexed": true,
          "internalType": "address",
          "name": "newOwner",
          "type": "address"
        }
      ],
      "name": "OwnershipTransferred",
      "type": "event"
    },
    {
      "inputs": [
        {
          "internalType": "bytes32",
          "name": "ticker",
          "type": "bytes32"
        },
        {
          "internalType": "address",
          "name": "tokenAddress",
          "type": "address"
        }
      ],
      "name": "addToken",
      "outputs": [],
      "stateMutability": "nonpayable",
      "type": "function"
    },
    {
      "inputs": [
        {
          "internalType": "address",
          "name": "",
          "type": "address"
        },
        {
          "internalType": "bytes32",
          "name": "",
          "type": "bytes32"
        }
      ],
      "name": "balances",
      "outputs": [
        {
          "internalType": "uint256",
          "name": "",
          "type": "uint256"
        }
      ],
      "stateMutability": "view",
      "type": "function",
      "constant": true
    },
    {
      "inputs": [
        {
          "internalType": "uint256",
          "name": "amount",
          "type": "uint256"
        },
        {
          "internalType": "bytes32",
          "name": "ticker",
          "type": "bytes32"
        }
      ],
      "name": "deposit",
      "outputs": [],
      "stateMutability": "nonpayable",
      "type": "function"
    },
    {
      "inputs": [],
      "name": "depositEth",
      "outputs": [],
      "stateMutability": "payable",
      "type": "function",
      "payable": true
    },
    {
      "inputs": [],
      "name": "nextOrderId",
      "outputs": [
        {
          "internalType": "uint256",
          "name": "",
          "type": "uint256"
        }
      ],
      "stateMutability": "view",
      "type": "function",
      "constant": true
    },
    {
      "inputs": [
        {
          "internalType": "bytes32",
          "name": "",
          "type": "bytes32"
        },
        {
          "internalType": "uint256",
          "name": "",
          "type": "uint256"
        },
        {
          "internalType": "uint256",
          "name": "",
          "type": "uint256"
        }
      ],
      "name": "orderBook",
      "outputs": [
        {
          "internalType": "uint256",
          "name": "id",
          "type": "uint256"
        },
        {
          "internalType": "address",
          "name": "trader",
          "type": "address"
        },
        {
          "internalType": "enum Dex.Side",
          "name": "side",
          "type": "uint8"
        },
        {
          "internalType": "bytes32",
          "name": "ticker",
          "type": "bytes32"
        },
        {
          "internalType": "uint256",
          "name": "amount",
          "type": "uint256"
        },
        {
          "internalType": "uint256",
          "name": "price",
          "type": "uint256"
        },
        {
          "internalType": "uint256",
          "name": "filled",
          "type": "uint256"
        }
      ],
      "stateMutability": "view",
      "type": "function",
      "constant": true
    },
    {
      "inputs": [],
      "name": "owner",
      "outputs": [
        {
          "internalType": "address",
          "name": "",
          "type": "address"
        }
      ],
      "stateMutability": "view",
      "type": "function",
      "constant": true
    },
    {
      "inputs": [],
      "name": "renounceOwnership",
      "outputs": [],
      "stateMutability": "nonpayable",
      "type": "function"
    },
    {
      "inputs": [
        {
          "internalType": "uint256",
          "name": "",
          "type": "uint256"
        }
      ],
      "name": "tokenList",
      "outputs": [
        {
          "internalType": "bytes32",
          "name": "",
          "type": "bytes32"
        }
      ],
      "stateMutability": "view",
      "type": "function",
      "constant": true
    },
    {
      "inputs": [
        {
          "internalType": "bytes32",
          "name": "",
          "type": "bytes32"
        }
      ],
      "name": "tokenMapping",
      "outputs": [
        {
          "internalType": "bytes32",
          "name": "ticker",
          "type": "bytes32"
        },
        {
          "internalType": "address",
          "name": "tokenAddress",
          "type": "address"
        }
      ],
      "stateMutability": "view",
      "type": "function",
      "constant": true
    },
    {
      "inputs": [
        {
          "internalType": "address",
          "name": "newOwner",
          "type": "address"
        }
      ],
      "name": "transferOwnership",
      "outputs": [],
      "stateMutability": "nonpayable",
      "type": "function"
    },
    {
      "inputs": [
        {
          "internalType": "uint256",
          "name": "amount",
          "type": "uint256"
        },
        {
          "internalType": "bytes32",
          "name": "ticker",
          "type": "bytes32"
        }
      ],
      "name": "withdraw",
      "outputs": [],
      "stateMutability": "nonpayable",
      "type": "function"
    },
    {
      "inputs": [
        {
          "internalType": "uint256",
          "name": "amount",
          "type": "uint256"
        }
      ],
      "name": "withdrawEth",
      "outputs": [],
      "stateMutability": "nonpayable",
      "type": "function"
    },
    {
      "inputs": [
        {
          "internalType": "bytes32",
          "name": "ticker",
          "type": "bytes32"
        },
        {
          "internalType": "enum Dex.Side",
          "name": "side",
          "type": "uint8"
        }
      ],
      "name": "getOrderBook",
      "outputs": [
        {
          "components": [
            {
              "internalType": "uint256",
              "name": "id",
              "type": "uint256"
            },
            {
              "internalType": "address",
              "name": "trader",
              "type": "address"
            },
            {
              "internalType": "enum Dex.Side",
              "name": "side",
              "type": "uint8"
            },
            {
              "internalType": "bytes32",
              "name": "ticker",
              "type": "bytes32"
            },
            {
              "internalType": "uint256",
              "name": "amount",
              "type": "uint256"
            },
            {
              "internalType": "uint256",
              "name": "price",
              "type": "uint256"
            },
            {
              "internalType": "uint256",
              "name": "filled",
              "type": "uint256"
            }
          ],
          "internalType": "struct Dex.Order[]",
          "name": "",
          "type": "tuple[]"
        }
      ],
      "stateMutability": "view",
      "type": "function",
      "constant": true
    },
    {
      "inputs": [
        {
          "internalType": "enum Dex.Side",
          "name": "side",
          "type": "uint8"
        },
        {
          "internalType": "bytes32",
          "name": "ticker",
          "type": "bytes32"
        },
        {
          "internalType": "uint256",
          "name": "amount",
          "type": "uint256"
        },
        {
          "internalType": "uint256",
          "name": "price",
          "type": "uint256"
        }
      ],
      "name": "createLimitOrder",
      "outputs": [],
      "stateMutability": "nonpayable",
      "type": "function"
    },
    {
      "inputs": [
        {
          "internalType": "enum Dex.Side",
          "name": "side",
          "type": "uint8"
        },
        {
          "internalType": "bytes32",
          "name": "ticker",
          "type": "bytes32"
        },
        {
          "internalType": "uint256",
          "name": "amount",
          "type": "uint256"
        }
      ],
      "name": "createMarketOrder",
      "outputs": [],
      "stateMutability": "nonpayable",
      "type": "function"
    }
  ],
  "bytecode": "0x608060405260006004553480156200001657600080fd5b50620000376200002b6200003d60201b60201c565b6200004560201b60201c565b62000109565b600033905090565b60008060009054906101000a900473ffffffffffffffffffffffffffffffffffffffff169050816000806101000a81548173ffffffffffffffffffffffffffffffffffffffff021916908373ffffffffffffffffffffffffffffffffffffffff1602179055508173ffffffffffffffffffffffffffffffffffffffff168173ffffffffffffffffffffffffffffffffffffffff167f8be0079c531659141344cd1fd0a4f28419497f9722a3daafe3b4186f6b6457e060405160405180910390a35050565b612c0580620001196000396000f3fe6080604052600436106100f35760003560e01c80639776aacf1161008a578063ba58ea6811610059578063ba58ea681461030e578063c311d0491461034b578063c9630cb014610374578063f2fde38b1461039d576100f3565b80639776aacf1461025657806399ec2f1c1461027f5780639ead7222146102a8578063a8d2021a146102e5576100f3565b8063667cb4ba116100c6578063667cb4ba146101ad5780636f3b62f9146101eb578063715018a6146102145780638da5cb5b1461022b576100f3565b80630bb431b6146100f85780631f14df691461013b5780632a58b33014610178578063439370b1146101a3575b600080fd5b34801561010457600080fd5b5061011f600480360381019061011a91906122b6565b6103c6565b60405161013297969594939291906127a0565b60405180910390f35b34801561014757600080fd5b50610162600480360381019061015d91906121b0565b61045f565b60405161016f9190612785565b60405180910390f35b34801561018457600080fd5b5061018d610484565b60405161019a9190612785565b60405180910390f35b6101ab61048a565b005b3480156101b957600080fd5b506101d460048036038101906101cf9190612215565b610583565b6040516101e29291906126dc565b60405180910390f35b3480156101f757600080fd5b50610212600480360381019061020d9190612354565b6105c7565b005b34801561022057600080fd5b506102296114a8565b005b34801561023757600080fd5b50610240611530565b60405161024d9190612624565b60405180910390f35b34801561026257600080fd5b5061027d6004803603810190610278919061223e565b611559565b005b34801561028b57600080fd5b506102a660048036038101906102a19190612305565b611694565b005b3480156102b457600080fd5b506102cf60048036038101906102ca91906123b7565b611699565b6040516102dc91906126c1565b60405180910390f35b3480156102f157600080fd5b5061030c600480360381019061030791906123e0565b6116bd565b005b34801561031a57600080fd5b506103356004803603810190610330919061227a565b611977565b604051610342919061269f565b60405180910390f35b34801561035757600080fd5b50610372600480360381019061036d91906123b7565b611b42565b005b34801561038057600080fd5b5061039b600480360381019061039691906123e0565b611cef565b005b3480156103a957600080fd5b506103c460048036038101906103bf9190612187565b611f18565b005b600560205282600052604060002060205281600052604060002081815481106103ee57600080fd5b906000526020600020906006020160009250925050508060000154908060010160009054906101000a900473ffffffffffffffffffffffffffffffffffffffff16908060010160149054906101000a900460ff16908060020154908060030154908060040154908060050154905087565b6003602052816000526040600020602052806000526040600020600091509150505481565b60045481565b61050d34600360003373ffffffffffffffffffffffffffffffffffffffff1673ffffffffffffffffffffffffffffffffffffffff16815260200190815260200160002060007f455448000000000000000000000000000000000000000000000000000000000081526020019081526020016000205461201090919063ffffffff16565b600360003373ffffffffffffffffffffffffffffffffffffffff1673ffffffffffffffffffffffffffffffffffffffff16815260200190815260200160002060007f4554480000000000000000000000000000000000000000000000000000000000815260200190815260200160002081905550565b60016020528060005260406000206000915090508060000154908060010160009054906101000a900473ffffffffffffffffffffffffffffffffffffffff16905082565b60006001811115610601577f4e487b7100000000000000000000000000000000000000000000000000000000600052602160045260246000fd5b84600181111561063a577f4e487b7100000000000000000000000000000000000000000000000000000000600052602160045260246000fd5b14156106d457610653818361202690919063ffffffff16565b600360003373ffffffffffffffffffffffffffffffffffffffff1673ffffffffffffffffffffffffffffffffffffffff16815260200190815260200160002060007f455448000000000000000000000000000000000000000000000000000000000081526020019081526020016000205410156106cf57600080fd5b6107ab565b60018081111561070d577f4e487b7100000000000000000000000000000000000000000000000000000000600052602160045260246000fd5b846001811115610746577f4e487b7100000000000000000000000000000000000000000000000000000000600052602160045260246000fd5b14156107aa5781600360003373ffffffffffffffffffffffffffffffffffffffff1673ffffffffffffffffffffffffffffffffffffffff16815260200190815260200160002060008581526020019081526020016000205410156107a957600080fd5b5b5b60006005600085815260200190815260200160002060008660018111156107fb577f4e487b7100000000000000000000000000000000000000000000000000000000600052602160045260246000fd5b81526020019081526020016000209050806040518060e0016040528060045481526020013373ffffffffffffffffffffffffffffffffffffffff168152602001876001811115610874577f4e487b7100000000000000000000000000000000000000000000000000000000600052602160045260246000fd5b8152602001868152602001858152602001848152602001600081525090806001815401808255809150506001900390600052602060002090600602016000909190919091506000820151816000015560208201518160010160006101000a81548173ffffffffffffffffffffffffffffffffffffffff021916908373ffffffffffffffffffffffffffffffffffffffff16021790555060408201518160010160146101000a81548160ff0219169083600181111561095b577f4e487b7100000000000000000000000000000000000000000000000000000000600052602160045260246000fd5b0217905550606082015181600201556080820151816003015560a0820151816004015560c08201518160050155505060008082805490501161099e5760006109b0565b600182805490506109af9190612909565b5b9050600060018111156109ec577f4e487b7100000000000000000000000000000000000000000000000000000000600052602160045260246000fd5b866001811115610a25577f4e487b7100000000000000000000000000000000000000000000000000000000600052602160045260246000fd5b1415610f1f575b6000811115610f1a57818181548110610a6e577f4e487b7100000000000000000000000000000000000000000000000000000000600052603260045260246000fd5b90600052602060002090600602016004015482600183610a8e9190612909565b81548110610ac5577f4e487b7100000000000000000000000000000000000000000000000000000000600052603260045260246000fd5b9060005260206000209060060201600401541115610ae257610f1a565b600082600183610af29190612909565b81548110610b29577f4e487b7100000000000000000000000000000000000000000000000000000000600052603260045260246000fd5b90600052602060002090600602016040518060e0016040529081600082015481526020016001820160009054906101000a900473ffffffffffffffffffffffffffffffffffffffff1673ffffffffffffffffffffffffffffffffffffffff1673ffffffffffffffffffffffffffffffffffffffff1681526020016001820160149054906101000a900460ff166001811115610bed577f4e487b7100000000000000000000000000000000000000000000000000000000600052602160045260246000fd5b6001811115610c25577f4e487b7100000000000000000000000000000000000000000000000000000000600052602160045260246000fd5b81526020016002820154815260200160038201548152602001600482015481526020016005820154815250509050828281548110610c8c577f4e487b7100000000000000000000000000000000000000000000000000000000600052603260045260246000fd5b906000526020600020906006020183600184610ca89190612909565b81548110610cdf577f4e487b7100000000000000000000000000000000000000000000000000000000600052603260045260246000fd5b9060005260206000209060060201600082015481600001556001820160009054906101000a900473ffffffffffffffffffffffffffffffffffffffff168160010160006101000a81548173ffffffffffffffffffffffffffffffffffffffff021916908373ffffffffffffffffffffffffffffffffffffffff1602179055506001820160149054906101000a900460ff168160010160146101000a81548160ff02191690836001811115610dbc577f4e487b7100000000000000000000000000000000000000000000000000000000600052602160045260246000fd5b02179055506002820154816002015560038201548160030155600482015481600401556005820154816005015590505080838381548110610e26577f4e487b7100000000000000000000000000000000000000000000000000000000600052603260045260246000fd5b90600052602060002090600602016000820151816000015560208201518160010160006101000a81548173ffffffffffffffffffffffffffffffffffffffff021916908373ffffffffffffffffffffffffffffffffffffffff16021790555060408201518160010160146101000a81548160ff02191690836001811115610ed6577f4e487b7100000000000000000000000000000000000000000000000000000000600052602160045260246000fd5b0217905550606082015181600201556080820151816003015560a0820151816004015560c082015181600501559050508180610f11906129b4565b92505050610a2c565b611488565b600180811115610f58577f4e487b7100000000000000000000000000000000000000000000000000000000600052602160045260246000fd5b866001811115610f91577f4e487b7100000000000000000000000000000000000000000000000000000000600052602160045260246000fd5b1415611487575b600081111561148657818181548110610fda577f4e487b7100000000000000000000000000000000000000000000000000000000600052603260045260246000fd5b90600052602060002090600602016004015482600183610ffa9190612909565b81548110611031577f4e487b7100000000000000000000000000000000000000000000000000000000600052603260045260246000fd5b906000526020600020906006020160040154101561104e57611486565b60008260018361105e9190612909565b81548110611095577f4e487b7100000000000000000000000000000000000000000000000000000000600052603260045260246000fd5b90600052602060002090600602016040518060e0016040529081600082015481526020016001820160009054906101000a900473ffffffffffffffffffffffffffffffffffffffff1673ffffffffffffffffffffffffffffffffffffffff1673ffffffffffffffffffffffffffffffffffffffff1681526020016001820160149054906101000a900460ff166001811115611159577f4e487b7100000000000000000000000000000000000000000000000000000000600052602160045260246000fd5b6001811115611191577f4e487b7100000000000000000000000000000000000000000000000000000000600052602160045260246000fd5b815260200160028201548152602001600382015481526020016004820154815260200160058201548152505090508282815481106111f8577f4e487b7100000000000000000000000000000000000000000000000000000000600052603260045260246000fd5b9060005260206000209060060201836001846112149190612909565b8154811061124b577f4e487b7100000000000000000000000000000000000000000000000000000000600052603260045260246000fd5b9060005260206000209060060201600082015481600001556001820160009054906101000a900473ffffffffffffffffffffffffffffffffffffffff168160010160006101000a81548173ffffffffffffffffffffffffffffffffffffffff021916908373ffffffffffffffffffffffffffffffffffffffff1602179055506001820160149054906101000a900460ff168160010160146101000a81548160ff02191690836001811115611328577f4e487b7100000000000000000000000000000000000000000000000000000000600052602160045260246000fd5b02179055506002820154816002015560038201548160030155600482015481600401556005820154816005015590505080838381548110611392577f4e487b7100000000000000000000000000000000000000000000000000000000600052603260045260246000fd5b90600052602060002090600602016000820151816000015560208201518160010160006101000a81548173ffffffffffffffffffffffffffffffffffffffff021916908373ffffffffffffffffffffffffffffffffffffffff16021790555060408201518160010160146101000a81548160ff02191690836001811115611442577f4e487b7100000000000000000000000000000000000000000000000000000000600052602160045260246000fd5b0217905550606082015181600201556080820151816003015560a0820151816004015560c08201518160050155905050818061147d906129b4565b92505050610f98565b5b5b6004600081548092919061149b906129de565b9190505550505050505050565b6114b061203c565b73ffffffffffffffffffffffffffffffffffffffff166114ce611530565b73ffffffffffffffffffffffffffffffffffffffff1614611524576040517f08c379a000000000000000000000000000000000000000000000000000000000815260040161151b90612745565b60405180910390fd5b61152e6000612044565b565b60008060009054906101000a900473ffffffffffffffffffffffffffffffffffffffff16905090565b61156161203c565b73ffffffffffffffffffffffffffffffffffffffff1661157f611530565b73ffffffffffffffffffffffffffffffffffffffff16146115d5576040517f08c379a00000000000000000000000000000000000000000000000000000000081526004016115cc90612745565b60405180910390fd5b60405180604001604052808381526020018273ffffffffffffffffffffffffffffffffffffffff16815250600160008481526020019081526020016000206000820151816000015560208201518160010160006101000a81548173ffffffffffffffffffffffffffffffffffffffff021916908373ffffffffffffffffffffffffffffffffffffffff16021790555090505060028290806001815401808255809150506001900390600052602060002001600090919091909150555050565b505050565b600281815481106116a957600080fd5b906000526020600020016000915090505481565b80600073ffffffffffffffffffffffffffffffffffffffff166001600083815260200190815260200160002060010160009054906101000a900473ffffffffffffffffffffffffffffffffffffffff1673ffffffffffffffffffffffffffffffffffffffff161415611764576040517f08c379a000000000000000000000000000000000000000000000000000000000815260040161175b90612765565b60405180910390fd5b82600360003373ffffffffffffffffffffffffffffffffffffffff1673ffffffffffffffffffffffffffffffffffffffff16815260200190815260200160002060008481526020019081526020016000205410156117f7576040517f08c379a00000000000000000000000000000000000000000000000000000000081526004016117ee90612725565b60405180910390fd5b61185a83600360003373ffffffffffffffffffffffffffffffffffffffff1673ffffffffffffffffffffffffffffffffffffffff16815260200190815260200160002060008581526020019081526020016000205461210890919063ffffffff16565b600360003373ffffffffffffffffffffffffffffffffffffffff1673ffffffffffffffffffffffffffffffffffffffff1681526020019081526020016000206000848152602001908152602001600020819055506001600083815260200190815260200160002060010160009054906101000a900473ffffffffffffffffffffffffffffffffffffffff1673ffffffffffffffffffffffffffffffffffffffff1663a9059cbb33856040518363ffffffff1660e01b815260040161191f929190612676565b602060405180830381600087803b15801561193957600080fd5b505af115801561194d573d6000803e3d6000fd5b505050506040513d601f19601f8201168201806040525081019061197191906121ec565b50505050565b60606005600084815260200190815260200160002060008360018111156119c7577f4e487b7100000000000000000000000000000000000000000000000000000000600052602160045260246000fd5b8152602001908152602001600020805480602002602001604051908101604052809291908181526020016000905b82821015611b3657838290600052602060002090600602016040518060e0016040529081600082015481526020016001820160009054906101000a900473ffffffffffffffffffffffffffffffffffffffff1673ffffffffffffffffffffffffffffffffffffffff1673ffffffffffffffffffffffffffffffffffffffff1681526020016001820160149054906101000a900460ff166001811115611ac3577f4e487b7100000000000000000000000000000000000000000000000000000000600052602160045260246000fd5b6001811115611afb577f4e487b7100000000000000000000000000000000000000000000000000000000600052602160045260246000fd5b8152602001600282015481526020016003820154815260200160048201548152602001600582015481525050815260200190600101906119f5565b50505050905092915050565b80600360003373ffffffffffffffffffffffffffffffffffffffff1673ffffffffffffffffffffffffffffffffffffffff16815260200190815260200160002060007f45544800000000000000000000000000000000000000000000000000000000008152602001908152602001600020541015611bf5576040517f08c379a0000000000000000000000000000000000000000000000000000000008152600401611bec90612725565b60405180910390fd5b611c7881600360003373ffffffffffffffffffffffffffffffffffffffff1673ffffffffffffffffffffffffffffffffffffffff16815260200190815260200160002060007f455448000000000000000000000000000000000000000000000000000000000081526020019081526020016000205461210890919063ffffffff16565b600360003373ffffffffffffffffffffffffffffffffffffffff1673ffffffffffffffffffffffffffffffffffffffff16815260200190815260200160002060007f455448000000000000000000000000000000000000000000000000000000000081526020019081526020016000208190555050565b80600073ffffffffffffffffffffffffffffffffffffffff166001600083815260200190815260200160002060010160009054906101000a900473ffffffffffffffffffffffffffffffffffffffff1673ffffffffffffffffffffffffffffffffffffffff161415611d96576040517f08c379a0000000000000000000000000000000000000000000000000000000008152600401611d8d90612765565b60405180910390fd5b6001600083815260200190815260200160002060010160009054906101000a900473ffffffffffffffffffffffffffffffffffffffff1673ffffffffffffffffffffffffffffffffffffffff166323b872dd3330866040518463ffffffff1660e01b8152600401611e099392919061263f565b602060405180830381600087803b158015611e2357600080fd5b505af1158015611e37573d6000803e3d6000fd5b505050506040513d601f19601f82011682018060405250810190611e5b91906121ec565b50611ebf83600360003373ffffffffffffffffffffffffffffffffffffffff1673ffffffffffffffffffffffffffffffffffffffff16815260200190815260200160002060008581526020019081526020016000205461201090919063ffffffff16565b600360003373ffffffffffffffffffffffffffffffffffffffff1673ffffffffffffffffffffffffffffffffffffffff168152602001908152602001600020600084815260200190815260200160002081905550505050565b611f2061203c565b73ffffffffffffffffffffffffffffffffffffffff16611f3e611530565b73ffffffffffffffffffffffffffffffffffffffff1614611f94576040517f08c379a0000000000000000000000000000000000000000000000000000000008152600401611f8b90612745565b60405180910390fd5b600073ffffffffffffffffffffffffffffffffffffffff168173ffffffffffffffffffffffffffffffffffffffff161415612004576040517f08c379a0000000000000000000000000000000000000000000000000000000008152600401611ffb90612705565b60405180910390fd5b61200d81612044565b50565b6000818361201e9190612859565b905092915050565b6000818361203491906128af565b905092915050565b600033905090565b60008060009054906101000a900473ffffffffffffffffffffffffffffffffffffffff169050816000806101000a81548173ffffffffffffffffffffffffffffffffffffffff021916908373ffffffffffffffffffffffffffffffffffffffff1602179055508173ffffffffffffffffffffffffffffffffffffffff168173ffffffffffffffffffffffffffffffffffffffff167f8be0079c531659141344cd1fd0a4f28419497f9722a3daafe3b4186f6b6457e060405160405180910390a35050565b600081836121169190612909565b905092915050565b60008135905061212d81612b63565b92915050565b60008151905061214281612b7a565b92915050565b60008135905061215781612b91565b92915050565b60008135905061216c81612ba8565b92915050565b60008135905061218181612bb8565b92915050565b60006020828403121561219957600080fd5b60006121a78482850161211e565b91505092915050565b600080604083850312156121c357600080fd5b60006121d18582860161211e565b92505060206121e285828601612148565b9150509250929050565b6000602082840312156121fe57600080fd5b600061220c84828501612133565b91505092915050565b60006020828403121561222757600080fd5b600061223584828501612148565b91505092915050565b6000806040838503121561225157600080fd5b600061225f85828601612148565b92505060206122708582860161211e565b9150509250929050565b6000806040838503121561228d57600080fd5b600061229b85828601612148565b92505060206122ac8582860161215d565b9150509250929050565b6000806000606084860312156122cb57600080fd5b60006122d986828701612148565b93505060206122ea86828701612172565b92505060406122fb86828701612172565b9150509250925092565b60008060006060848603121561231a57600080fd5b60006123288682870161215d565b935050602061233986828701612148565b925050604061234a86828701612172565b9150509250925092565b6000806000806080858703121561236a57600080fd5b60006123788782880161215d565b945050602061238987828801612148565b935050604061239a87828801612172565b92505060606123ab87828801612172565b91505092959194509250565b6000602082840312156123c957600080fd5b60006123d784828501612172565b91505092915050565b600080604083850312156123f357600080fd5b600061240185828601612172565b925050602061241285828601612148565b9150509250929050565b60006124288383612578565b60e08301905092915050565b61243d8161293d565b82525050565b61244c8161293d565b82525050565b600061245d8261281f565b6124678185612837565b93506124728361280f565b8060005b838110156124a357815161248a888261241c565b97506124958361282a565b925050600181019050612476565b5085935050505092915050565b6124b98161295b565b82525050565b6124c88161295b565b82525050565b6124d7816129a2565b82525050565b6124e6816129a2565b82525050565b60006124f9602683612848565b915061250482612a85565b604082019050919050565b600061251c601283612848565b915061252782612ad4565b602082019050919050565b600061253f602083612848565b915061254a82612afd565b602082019050919050565b6000612562601483612848565b915061256d82612b26565b602082019050919050565b60e08201600082015161258e6000850182612606565b5060208201516125a16020850182612434565b5060408201516125b460408501826124ce565b5060608201516125c760608501826124b0565b5060808201516125da6080850182612606565b5060a08201516125ed60a0850182612606565b5060c082015161260060c0850182612606565b50505050565b61260f81612998565b82525050565b61261e81612998565b82525050565b60006020820190506126396000830184612443565b92915050565b60006060820190506126546000830186612443565b6126616020830185612443565b61266e6040830184612615565b949350505050565b600060408201905061268b6000830185612443565b6126986020830184612615565b9392505050565b600060208201905081810360008301526126b98184612452565b905092915050565b60006020820190506126d660008301846124bf565b92915050565b60006040820190506126f160008301856124bf565b6126fe6020830184612443565b9392505050565b6000602082019050818103600083015261271e816124ec565b9050919050565b6000602082019050818103600083015261273e8161250f565b9050919050565b6000602082019050818103600083015261275e81612532565b9050919050565b6000602082019050818103600083015261277e81612555565b9050919050565b600060208201905061279a6000830184612615565b92915050565b600060e0820190506127b5600083018a612615565b6127c26020830189612443565b6127cf60408301886124dd565b6127dc60608301876124bf565b6127e96080830186612615565b6127f660a0830185612615565b61280360c0830184612615565b98975050505050505050565b6000819050602082019050919050565b600081519050919050565b6000602082019050919050565b600082825260208201905092915050565b600082825260208201905092915050565b600061286482612998565b915061286f83612998565b9250827fffffffffffffffffffffffffffffffffffffffffffffffffffffffffffffffff038211156128a4576128a3612a27565b5b828201905092915050565b60006128ba82612998565b91506128c583612998565b9250817fffffffffffffffffffffffffffffffffffffffffffffffffffffffffffffffff04831182151516156128fe576128fd612a27565b5b828202905092915050565b600061291482612998565b915061291f83612998565b92508282101561293257612931612a27565b5b828203905092915050565b600061294882612978565b9050919050565b60008115159050919050565b6000819050919050565b600081905061297382612b4f565b919050565b600073ffffffffffffffffffffffffffffffffffffffff82169050919050565b6000819050919050565b60006129ad82612965565b9050919050565b60006129bf82612998565b915060008214156129d3576129d2612a27565b5b600182039050919050565b60006129e982612998565b91507fffffffffffffffffffffffffffffffffffffffffffffffffffffffffffffffff821415612a1c57612a1b612a27565b5b600182019050919050565b7f4e487b7100000000000000000000000000000000000000000000000000000000600052601160045260246000fd5b7f4e487b7100000000000000000000000000000000000000000000000000000000600052602160045260246000fd5b7f4f776e61626c653a206e6577206f776e657220697320746865207a65726f206160008201527f6464726573730000000000000000000000000000000000000000000000000000602082015250565b7f496e7375666669656e742062616c616e63650000000000000000000000000000600082015250565b7f4f776e61626c653a2063616c6c6572206973206e6f7420746865206f776e6572600082015250565b7f746f6b656e20646f6573206e6f74206578697374000000000000000000000000600082015250565b60028110612b6057612b5f612a56565b5b50565b612b6c8161293d565b8114612b7757600080fd5b50565b612b838161294f565b8114612b8e57600080fd5b50565b612b9a8161295b565b8114612ba557600080fd5b50565b60028110612bb557600080fd5b50565b612bc181612998565b8114612bcc57600080fd5b5056fea26469706673582212209918dd7ddce61a7d180f0cf372b7c49401de899d68008f1235b514073f9fcb6c64736f6c63430008040033",
  "immutableReferences": {},
  "source": "// SPDX-License-Identifier: MIT\npragma solidity >=0.7.0 <0.9.0;\npragma experimental ABIEncoderV2;\n\nimport \"./Wallet.sol\";\n\ncontract Dex is Wallets {\n    using SafeMath for uint256;\n\n    enum Side {\n        BUY,\n        SELL\n    }\n\n    struct Order {\n        uint256 id;\n        address trader;\n        Side side;\n        bytes32 ticker;\n        uint256 amount;\n        uint256 price;\n        uint256 filled;\n    }\n\n    uint256 public nextOrderId = 0;\n\n    mapping(bytes32 => mapping(uint256 => Order[])) public orderBook;\n\n    function getOrderBook(bytes32 ticker, Side side)\n        public\n        view\n        returns (Order[] memory)\n    {\n        return orderBook[ticker][uint256(side)];\n    }\n\n    function createLimitOrder(\n        Side side,\n        bytes32 ticker,\n        uint256 amount,\n        uint256 price\n    ) public {\n        if (side == Side.BUY) {\n            require(balances[msg.sender][\"ETH\"] >= amount.mul(price));\n        } else if (side == Side.SELL) {\n            require(balances[msg.sender][ticker] >= amount);\n        }\n\n        Order[] storage orders = orderBook[ticker][uint256(side)];\n        orders.push(\n            Order(nextOrderId, msg.sender, side, ticker, amount, price, 0)\n        );\n\n        //Bubble sort\n        uint256 i = orders.length > 0 ? orders.length - 1 : 0;\n        if (side == Side.BUY) {\n            while (i > 0) {\n                if (orders[i - 1].price > orders[i].price) {\n                    break;\n                }\n                Order memory orderToMove = orders[i - 1];\n                orders[i - 1] = orders[i];\n                orders[i] = orderToMove;\n                i--;\n            }\n        } else if (side == Side.SELL) {\n            while (i > 0) {\n                if (orders[i - 1].price < orders[i].price) {\n                    break;\n                }\n                Order memory orderToMove = orders[i - 1];\n                orders[i - 1] = orders[i];\n                orders[i] = orderToMove;\n                i--;\n            }\n        }\n\n        nextOrderId++;\n    }\n\n    function createMarketOrder(\n        Side side,\n        bytes32 ticker,\n        uint256 amount\n    ) public {}\n}\n",
  "sourcePath": "/Users/mubashirhussain/Desktop/dex/contracts/dex.sol",
  "compiler": {
    "name": "solc",
    "version": "0.8.4+commit.c7e474f2.Emscripten.clang"
  },
  "schemaVersion": "3.4.6",
  "updatedAt": "2022-05-09T23:53:27.345Z",
  "networkType": "ethereum",
  "devdoc": {
    "kind": "dev",
    "methods": {
      "owner()": {
        "details": "Returns the address of the current owner."
      },
      "renounceOwnership()": {
        "details": "Leaves the contract without owner. It will not be possible to call `onlyOwner` functions anymore. Can only be called by the current owner. NOTE: Renouncing ownership will leave the contract without an owner, thereby removing any functionality that is only available to the owner."
      },
      "transferOwnership(address)": {
        "details": "Transfers ownership of the contract to a new account (`newOwner`). Can only be called by the current owner."
      }
    },
    "version": 1
  },
  "userdoc": {
    "kind": "user",
    "methods": {},
    "version": 1
  }
}